{
  "contractName": "DogeTokenSale",
  "abi": [
    {
      "inputs": [
        {
          "internalType": "address",
          "name": "_tokenaddress",
          "type": "address"
        },
        {
          "internalType": "uint256",
          "name": "_tokenvalue",
          "type": "uint256"
        }
      ],
      "stateMutability": "nonpayable",
      "type": "constructor"
    },
    {
      "anonymous": false,
      "inputs": [
        {
          "indexed": false,
          "internalType": "address",
          "name": "sender",
          "type": "address"
        },
        {
          "indexed": false,
          "internalType": "uint256",
          "name": "totalvalue",
          "type": "uint256"
        }
      ],
      "name": "Sell",
      "type": "event"
    },
    {
      "inputs": [],
      "name": "admin",
      "outputs": [
        {
          "internalType": "address payable",
          "name": "",
          "type": "address"
        }
      ],
      "stateMutability": "view",
      "type": "function"
    },
    {
      "inputs": [],
      "name": "dogetoken",
      "outputs": [
        {
          "internalType": "contract DogeToken",
          "name": "",
          "type": "address"
        }
      ],
      "stateMutability": "view",
      "type": "function"
    },
    {
      "inputs": [],
      "name": "tokenprice",
      "outputs": [
        {
          "internalType": "uint256",
          "name": "",
          "type": "uint256"
        }
      ],
      "stateMutability": "view",
      "type": "function"
    },
    {
      "inputs": [],
      "name": "totalsold",
      "outputs": [
        {
          "internalType": "uint256",
          "name": "",
          "type": "uint256"
        }
      ],
      "stateMutability": "view",
      "type": "function"
    },
    {
      "inputs": [],
      "name": "buyTokens",
      "outputs": [],
      "stateMutability": "payable",
      "type": "function"
    },
    {
      "inputs": [],
      "name": "endsale",
      "outputs": [],
      "stateMutability": "nonpayable",
      "type": "function"
    }
  ],
  "bytecode": "0x608060405234801561001057600080fd5b506040516107e23803806107e28339818101604052604081101561003357600080fd5b810190808051906020019092919080519060200190929190505050336000806101000a81548173ffffffffffffffffffffffffffffffffffffffff021916908373ffffffffffffffffffffffffffffffffffffffff1602179055508060028190555081600160006101000a81548173ffffffffffffffffffffffffffffffffffffffff021916908373ffffffffffffffffffffffffffffffffffffffff16021790555050506106fb806100e76000396000f3fe6080604052600436106100555760003560e01c8063385331111461005a578063a35258481461009b578063c8b335a4146100c6578063d0bd4c73146100dd578063d0febe4c14610108578063f851a44014610112575b600080fd5b34801561006657600080fd5b5061006f610153565b604051808273ffffffffffffffffffffffffffffffffffffffff16815260200191505060405180910390f35b3480156100a757600080fd5b506100b0610179565b6040518082815260200191505060405180910390f35b3480156100d257600080fd5b506100db61017f565b005b3480156100e957600080fd5b506100f261040b565b6040518082815260200191505060405180910390f35b610110610411565b005b34801561011e57600080fd5b50610127610673565b604051808273ffffffffffffffffffffffffffffffffffffffff16815260200191505060405180910390f35b600160009054906101000a900473ffffffffffffffffffffffffffffffffffffffff1681565b60035481565b60008054906101000a900473ffffffffffffffffffffffffffffffffffffffff1673ffffffffffffffffffffffffffffffffffffffff163373ffffffffffffffffffffffffffffffffffffffff1614610240576040517f08c379a00000000000000000000000000000000000000000000000000000000081526004018080602001828103825260168152602001807f20796f7520617265206e6f74207468652061646d696e0000000000000000000081525060200191505060405180910390fd5b600160009054906101000a900473ffffffffffffffffffffffffffffffffffffffff1673ffffffffffffffffffffffffffffffffffffffff1663a9059cbb33600160009054906101000a900473ffffffffffffffffffffffffffffffffffffffff1673ffffffffffffffffffffffffffffffffffffffff166370a08231306040518263ffffffff1660e01b8152600401808273ffffffffffffffffffffffffffffffffffffffff16815260200191505060206040518083038186803b15801561030857600080fd5b505afa15801561031c573d6000803e3d6000fd5b505050506040513d602081101561033257600080fd5b81019080805190602001909291905050506040518363ffffffff1660e01b8152600401808373ffffffffffffffffffffffffffffffffffffffff16815260200182815260200192505050602060405180830381600087803b15801561039657600080fd5b505af11580156103aa573d6000803e3d6000fd5b505050506040513d60208110156103c057600080fd5b81019080805190602001909291905050505060008054906101000a900473ffffffffffffffffffffffffffffffffffffffff1673ffffffffffffffffffffffffffffffffffffffff16ff5b60025481565b6002543402600160009054906101000a900473ffffffffffffffffffffffffffffffffffffffff1673ffffffffffffffffffffffffffffffffffffffff166370a08231306040518263ffffffff1660e01b8152600401808273ffffffffffffffffffffffffffffffffffffffff16815260200191505060206040518083038186803b15801561049f57600080fd5b505afa1580156104b3573d6000803e3d6000fd5b505050506040513d60208110156104c957600080fd5b81019080805190602001909291905050501015610531576040517f08c379a000000000000000000000000000000000000000000000000000000000815260040180806020018281038252602e815260200180610698602e913960400191505060405180910390fd5b600160009054906101000a900473ffffffffffffffffffffffffffffffffffffffff1673ffffffffffffffffffffffffffffffffffffffff1663a9059cbb3360025434026040518363ffffffff1660e01b8152600401808373ffffffffffffffffffffffffffffffffffffffff16815260200182815260200192505050602060405180830381600087803b1580156105c857600080fd5b505af11580156105dc573d6000803e3d6000fd5b505050506040513d60208110156105f257600080fd5b81019080805190602001909291905050505060025434026003600082825401925050819055507f5e5e995ce3133561afceaa51a9a154d5db228cd7525d34df5185582c18d3df09336002543402604051808373ffffffffffffffffffffffffffffffffffffffff1681526020018281526020019250505060405180910390a1565b60008054906101000a900473ffffffffffffffffffffffffffffffffffffffff168156fe74686520736d61727420636f6e747261637420646f6e7420686f6c642074686520656e6f75676820746f6b656e73a264697066735822122077c27d702754d71662141700d021c318a9079a5ae2a0cdd45700954a710a8fd664736f6c63430007000033",
  "immutableReferences": {},
  "source": "// SPDX-License-Identifier: MIT\r\npragma solidity >=0.4.22 <0.9.0;\r\nimport './DogeToken.sol';\r\ncontract DogeTokenSale {\r\n   // address of admin\r\n    address payable public  admin;\r\n    // define the instance of DevToken\r\n    DogeToken public dogetoken;\r\n    // token price variable\r\n    uint256 public tokenprice;\r\n    // count of token sold vaariable\r\n    uint256 public totalsold; \r\n     \r\n    event Sell(address sender,uint256 totalvalue); \r\n   \r\n    // constructor \r\n    constructor(address _tokenaddress,uint256 _tokenvalue){\r\n        admin  = msg.sender;\r\n        tokenprice = _tokenvalue;\r\n        dogetoken  = DogeToken(_tokenaddress);\r\n    }\r\n   \r\n    // buyTokens function\r\n    function buyTokens() public payable{\r\n    // check if the contract has the tokens or not\r\n    require(dogetoken.balanceOf(address(this)) >= msg.value*tokenprice,'the smart contract dont hold the enough tokens');\r\n    // transfer the token to the user\r\n    dogetoken.transfer(msg.sender,msg.value*tokenprice);\r\n    // increase the token sold\r\n    totalsold += msg.value*tokenprice;\r\n    // emit sell event for ui\r\n     emit Sell(msg.sender, msg.value*tokenprice);\r\n    }\r\n\r\n    // end sale\r\n    function endsale() public{\r\n    // check if admin has clicked the function\r\n    require(msg.sender == admin , ' you are not the admin');\r\n    // transfer all the remaining tokens to admin\r\n    dogetoken.transfer(msg.sender,dogetoken.balanceOf(address(this)));\r\n    // transfer all the etherum to admin and self selfdestruct the contract\r\n    selfdestruct(admin);\r\n    }\r\n \r\n}",
  "sourcePath": "C:/Users/NEHA KUMARI/Crypto/contracts/DogeCrowdsale.sol",
  "compiler": {
    "name": "solc",
    "version": "0.7.0+commit.9e61f92b.Emscripten.clang"
  },
  "schemaVersion": "3.3.3",
  "updatedAt": "2021-06-20T00:35:05.758Z",
  "devdoc": {
    "kind": "dev",
    "methods": {},
    "version": 1
  },
  "userdoc": {
    "kind": "user",
    "methods": {},
    "version": 1
  }
}